:020000040800F2
:10000000600F002005010008950D00087509000823
:10001000A50B000879030008F7170008000000008E
:1000200000000000000000000000000011110008A6
:100030007D05000800000000510E00089D14000816
:100040001F0100081F0100081F0100081F01000810
:100050001F0100081F010008B5050008210600085F
:10006000750600081F0100081F0100081F01000895
:100070001F0100081F0100081F0100081F010008E0
:100080001F0100081F0100081F0100081F010008D0
:100090001F0100081F0100081F010008AD0600082D
:1000A0001F0100081F0100081F0100081F010008B0
:1000B000151500081F0100081F0100081F01000896
:1000C0001F0100081F0100081F0100081F01000890
:1000D0001F0100081F0100081F0100081F01000880
:1000E0001F0100081F0100081F010008DFF810D0E1
:1000F00000F0F4F800480047A1190008AFF30080B1
:10010000600F00200648804706480047FEE7FEE7EC
:10011000FEE7FEE7FEE7FEE7FEE7FEE7FEE7FEE7B7
:10012000A1140008ED00000838B5D0E90221491EED
:1001300001EB410102EBC1014268C1EB011102EB8D
:1001400081010268C1EB011102EB8102D0E90431A7
:1001500001EB410103EB81013023A1F5527191FBC9
:10016000F3F4174D6C4302EBC41291FBF3F403FB61
:10017000141100921A2902DB124B1A4400920C222D
:1001800091FBF2F3104C6343009C04EBC313009308
:1001900091FBF2F302FB13110C4A08E0491E40F2F6
:1001A000A324535C6343009C04EBC3130093002916
:1001B000F4DC0146684600F04BF8009838BD0000BA
:1001C0003F0C0F008051010067C20300E86B00087C
:1001D00040EA01039B0703D009E008C9121F08C0C9
:1001E000042AFAD203E011F8013B00F8013B521E49
:1001F000F9D27047D2B201E000F8012B491EFBD2C0
:1002000070470022F6E710B513460A460446194621
:10021000FFF7F0FF204610BD30B50B460146002029
:100220002022012409E021FA02F59D4205D303FAB8
:1002300002F5491B04FA02F52844151EA2F1010239
:10024000F1DC30BD014900F003B80000340B0020A0
:1002500010B500683C22B0FBF2F302FB1303B0FBC5
:10026000F2F00B60B0FBF2F302FB1303B0FBF2F011
:1002700018224B60B0FBF2F302FB1303B0FBF2F069
:10028000021D8B600723B2FBF3F403FB14228000F2
:1002900040F2B55300F66C308A61B0FBF3F2B0FB6C
:1002A000F3F403FB1400443280084A61C8613B2820
:1002B00002D3920700D0401C0022074C13460A616B
:1002C000E25C824203D8801A5B1C0B61F8E7401C99
:1002D000C860084610BD0000F46B0008064C074DCE
:1002E00006E0E06840F0010394E807009847103406
:1002F000AC42F6D3FFF7FEFED06C0008F06C0008AD
:1003000070B58C1810F8015B15F0070301D110F8D7
:10031000013B2A1106D110F8012B03E010F8016B04
:1003200001F8016B5B1EF9D12B0705D40023521E87
:100330000DD401F8013BFAE710F8013BCB1A921CEF
:1003400003E013F8015B01F8015B521EF9D5A142ED
:10035000D8D3002070BD000008B5024908440090C1
:10036000008808BD006C004008B5024A10440090A7
:10037000016008BD006C0040FEE7000030B589B0A8
:100380000121082000F090FD0121042000F080FDF3
:1003900018208DF81F004FF48070ADF81C0003206A
:1003A0008DF81E0007A9144800F03AFA0024ADF8B1
:1003B000164040F6D530ADF81400ADF812403F209D
:1003C0000E4DADF810008DF8184004A9284601F034
:1003D00039F9684601F02AF96020ADF800000120E3
:1003E000ADF80200ADF80840ADF806406946284671
:1003F00001F0DEF809B030BD000C014000080040FB
:1004000010B50A4C012809D00021204601F018F946
:1004100000212046BDE8104001F0A6B84FF4A571B8
:10042000204601F00DF90121F3E70000000800402B
:1004300030B53C4C87B0207828B900213A4802F00A
:100440006AFB0120207000F05DFC374801F0D3FA10
:100450003649354801F050FE354D36A1E878009018
:10046000AB782A8802A801F0C7F902AB0822002164
:100470002D4801F069FDE87908280CD2DFE800F08A
:100480000B040644464A4C4E2DA348E02DA346E0FB
:10049000254801F059FD2C49234801F02DFE0A247E
:1004A00068792A79B0FBF4F1B2FBF4F304FB110193
:1004B000B0FBF4F004FB1323B2FBF4F2CDE900012E
:1004C00022A106A801F098F906AB2D2212211648A8
:1004D00001F03AFD2049144801F00EFEA879B0FB66
:1004E000F4F1B0FBF4F204FB11031CA105A801F028
:1004F00083F905AB2D226A210B4801F025FD0A483E
:1005000001F0DBFD07B030BD16A308E0082216A3FA
:100510006221BDE716A302E016A300E016A308229D
:100520006E21B5E78C06002094060020326000089A
:100530001A00002025642D25642D2564000000008C
:100540004D6F6E00547565003640000825642564C3
:100550003A25642564000000CC3C0008256425642D
:100560000000000057656400546875727300000055
:10057000467269005361740053756E00704700B590
:1005800002464FF47A7302E0184600F003F8521E58
:10059000FAD200BD00EBC000C1004FF0E020416185
:1005A00000218161052101610169C903FCD5042194
:1005B0000161704710B5012000F0D6F8012826D15E
:1005C0001420FFF7DCFF0121114800F07AF948B947
:1005D00010494A20114C08600F480078012806D0C5
:1005E00003206080BDE81040012000F0A5B821780C
:1005F0004FF08040012905D0012100F0B5FF012016
:100600002070EFE7002100F0AFFF0020F8E710BDF9
:10061000000801403C000020880600201400002053
:1006200010B5022000F0A0F8012819D11420FFF71E
:10063000A6FF02210B4800F044F930B90A480078BF
:10064000012807D0094901204880BDE81040022058
:1006500000F072B806480021817001704170F4E723
:1006600010BD000000080140880600201400002092
:100670008906002010B5042000F076F801280FD17B
:100680001420FFF77CFF0421064800F01AF910B986
:10069000054902204880BDE81040042000F04CB815
:1006A00010BD000000080140140000202DE9F041B9
:1006B0004FF48075284600F057F8DFF86C8000266C
:1006C0001A4F1B4C012813D11420FFF758FF29465D
:1006D000404600F0F6F840B916494A2008602078F4
:1006E000012800D1267004207880284600F024F8E4
:1006F0004FF40075284600F037F8012812D1142075
:10070000FFF73DFF2946404600F0DBF828B9207886
:10071000012800D12670052078802846BDE8F041E8
:1007200000F00AB8BDE8F081000801401400002084
:10073000880600203C000020014908607047000046
:1007400014040140064900200860091D0860091DC5
:100750000860091D086002490248143108607047AA
:1007600000040140FFFF0F00064A01460020126806
:10077000044B0A4014331B680B4202D0002A00D0FD
:10078000012070470004014030B51A49837902689E
:1007900053B30B6893430B600A1D13680468A343AB
:1007A000136002790A441368046823431360114AF2
:1007B000083213680468A3431360131D1C6805689E
:1007C000AC431C604479102C05D021440A680068B1
:1007D00002430A6030BD1168046821431160196842
:1007E00000680143196030BD0079084401689143F5
:1007F000016030BD0004014010B58A0721F00304F8
:100800000649130F21440F228C689A4094438C6050
:100810008A68984002438A6010BD000000000140D1
:10082000F0B5CA78002502F00F03D20601D58A7808
:1008300013430A784FF00F0E12F0FF0F4FF0010232
:100840001CD004680F8802FA05F63740B74211D170
:100850004FEA850C0EFA0CF724EA070703FA0CF4AA
:100860003C43CF78282F02D0482F02D002E04661C7
:1008700000E006616D1C082DE4D304600C88FF2C99
:100880001ED944685FF0000606F1080702FA07F572
:100890000F882F40AF420FD14FEA860C0EFA0CF7AB
:1008A000BC4303FA0CF73C43CF78282F00D14561B5
:1008B000CF78482F00D10561761C082EE4D3446020
:1008C000F0BD0246002092680A4200D00120704725
:1008D000416170471CB5094801F08DF80849402076
:1008E000CDE90001002280231146044801F03AFBC3
:1008F000BDE81C40014801F0E0BB00009406002068
:10090000CC38000800B585B00121082000F0CCFAF1
:100910000121880500F0BCFA1C208DF813004FF46B
:100920004060ADF8100003208DF8120004A90E48B5
:10093000FFF776FF4FF48060ADF80A000001ADF8D4
:100940000C000A4800904BF6FF70ADF8060000203E
:10095000ADF804001020ADF808006946044800F026
:100960003FF805B000BD0000000C0140801A0600F1
:1009700000580040FEE702460020938A128B43EAAB
:10098000024323F07F42914300D1012070470029A8
:10099000018802D041F4807101E021F4807101806E
:1009A00070470029018802D041F4007101E021F470
:1009B0000071018070470CB50246002000920A0FBA
:1009C00021F07F41019202D0009A143202E0009A95
:1009D000090C1832009212680A4200D001200CBDA6
:1009E00070B50446808886B00D4620F03F06684604
:1009F00000F086FA27490298B0FBF1F189B20E4364
:100A0000A680228822F001022280234B2A689A4283
:100A10001CD85200B0FBF2F080B2042800D20420AF
:100A2000491C2184A083208840F001002080218877
:100A30004FF6F5300140A8886A89104308432080AA
:100A4000A88929890843208106B070BDEB88A3F5E9
:100A50003F46FF3E0BD002EBC20303EB0212B0FB9A
:100A6000F2F080B240F48040020506D007E002EBCD
:100A70004202B0FBF2F080B2F6E740F001004FF422
:100A8000967251434FF47A72B1FBF2F140F4004098
:100A9000C6E7000040420F00A086010012B141F0FD
:100AA000010101E001F0FE010182704701827047FF
:100AB0001FB50121042000F0F7F90121084600F0DC
:100AC000F3F948208DF80F0040F20734ADF80C40E0
:100AD00003208DF80E0003A92448FFF7A1FE002192
:100AE0000846FFF789FE01210020FFF785FE02215D
:100AF0000020FFF781FE08210020FFF77DFE09217D
:100B00000020FFF779FEFFF71DFE019401248DF808
:100B10000A4000208DF808000C208DF8090001A87B
:100B2000FFF732FE4FF4A06000F068F906208DF860
:100B300000008DF803408DF801408DF802406846B2
:100B400000F02AF907208DF80000684600F024F92B
:100B500008208DF80000684600F01EF917208DF877
:100B60000000684600F018F91FBD000000080140B1
:100B700038B50121102000F097F910208DF80300FE
:100B80004402ADF800400320054D8DF8020069468F
:100B90002846FFF745FE21462846FFF799FE38BD57
:100BA00000100140FEE7000070B5224C224904F11C
:100BB0008C05E06A20630A78F2B120462B46C06AB1
:100BC00000EB400003EB80000023062A13D2DFE88D
:100BD00002F0120305070F11407807E0807805E066
:100BE000C078E062022806D1A068801CE06202E0C2
:100BF0000079FBE7E3620B70E06A092803D00A285A
:100C000001D00B2806D100EB400005EB8000806886
:100C100060638047E06A00EB400005EB800080687D
:100C200060638047054801F048FABDE8704003481A
:100C300000F0E1BE240000201600002094060020F1
:100C40002DE9F0410121080700F022F90121C80631
:100C500000F01EF9012000F0DBF80420FFF77CFB18
:100C60004AF2A556264CB0424FF4007749F63F4869
:100C700042F210754FF0010023D000F0B9F9258041
:100C800003E02088411E218004D3612000F080F918
:100C90000028F6D0384600F0DBF9012000F0D2F948
:100CA00000F02AFA00F020FA404600F00DFA00F0B9
:100CB0001BFA00F04DF83146BDE8F0410420FFF783
:100CC00053BB00F095F9258003E02088411E218068
:100CD00004D3612000F05CF90028F6D0384600F01B
:100CE000B7F9012000F0AEF900F006FA00F0FCF9C7
:100CF000404600F0E9F9BDE8F04100F0F5B9000028
:100D00001800002000B58DB000F0C4F900F5E140F6
:100D10000B900BA8FFF796FA01462C226846FFF7C6
:100D200057FA0A48059901F26C7101800499491C2F
:100D300081700399C1700299017101994171009903
:100D400081710699491CC1710DB000BD1A000020C7
:100D50000F4800B501888BB0A1F26C7105918178C4
:100D6000491E0491C1780391017902914179019161
:100D700081790091C079401E06906846FFF7D4F94A
:100D8000A0F5E14000F090F900F0AEF90BB000BD25
:100D90001A0000207047000070B50F23C478017856
:100DA0000122F4B1144C2468457804F4E064C4F5DD
:100DB000E064240AC4F10406E3408478B5401C4092
:100DC0002C4301F1E021230181F80034007800F088
:100DD0001F018A404009800000F1E020C0F8002196
:100DE00070BD01F01F0082404809800000F1E02042
:100DF000C0F8802170BD00000CED00E002490843FE
:100E000002490860704700000000FA050CED00E0A0
:100E1000014908627047000000000E420A4B1A6840
:100E200022F0030202431A600848026842F00402FA
:100E30000260012905D020BF016821F00401016092
:100E4000704730BFF8E700000070004010ED00E090
:100E5000704700000C4810B50178012901D100212C
:100E600001700A4800F0C7FD084800F0CDFD0121DF
:100E7000064801F050FE01210020FFF7CFFFBDE83A
:100E8000104000F00DBB00008C06002094060020EE
:100E9000044A0029D16901D0014300E08143D161B6
:100EA0007047000000100240044A0029916901D0F7
:100EB000014300E08143916170470000001002404F
:100EC0000C48016841F00101016041680A4A114083
:100ED00041600168094A11400160016821F48021E4
:100EE0000160416821F4FE0141604FF41F018160FF
:100EF00070470000001002400000FFF8FFFFF6FE00
:100F000030B51F494A6812F00C031E4A03D0042B67
:100F100001D0082B21D002604A680F231A4C03EA43
:100F20001212A35C0268DA4042604B68072505EAAA
:100F30001323E35C22FA03F383604B6805EAD323AF
:100F4000E35CDA40C2604968032303EA9131231F5E
:100F5000595CB2FBF1F1016130BD4A684B6802F4A3
:100F600070124FF0020413F4803F04EB924202D05F
:100F70004B689B0301D5054B00E0024B5A43CAE77F
:100F80000010024000127A000400002000093D0019
:100F90000246002053090949012B0BD0022B0BD02C
:100FA000D1F8241002F01F02012393400B4200D01D
:100FB000012070470968F5E7096AF3E7001002406D
:100FC0000248406800F00C0070470000001002402A
:100FD000034A516821F0F00101435160704700005D
:100FE00000100240014908607047000000004242C2
:100FF000014908607047000080044242034A51687A
:1010000021F4E0610143516070470000001002408C
:1010100003494A6822F4605242EAC00048607047BF
:10102000001002400149086670470000000042427B
:10103000034A5368084323F47C13184350607047F5
:101040000010024001490860704700003C04424221
:1010500002490A6A02430A62704700000010024017
:10106000034A516821F003010143516070470000B9
:10107000001002400248018841F0100101807047D1
:10108000042800400248018821F0100101807047C7
:1010900004280040034800880249091F098840EAE3
:1010A000014070471C28004000B50246FFF7E2FFF0
:1010B0000449100C0880081D02805DF804EBFFF75E
:1010C000E1BF00001828004000B50246FFF7D2FF3C
:1010D0000449C2F303400880081D02805DF804EB58
:1010E000FFF7D0BF08280040024801888906FCD5D8
:1010F00070470000042800400448018821F00801DE
:10110000018001880907FCD57047000004280040D1
:101110007047000070B535490A6B012A24D18868F0
:101120000B46401C88600C694FF00005A4F1400498
:101130000C615B6909D4984207DC4A268E613C2623
:101140000E626FF00706C1E909652A262A2C03DA28
:10115000A6EB8316A64200DB0E61002801DA8D6043
:1011600002E0984200DB8B60901E062836D8C0B2A1
:10117000C0EB001303EB40131D4800EB8300836FAB
:101180005B1C836725D4C46FA34222DCD0E92D34D5
:101190002344C0F8B430836FC0F89030032B05D8D7
:1011A000D0F8A0301033C0F8A03008E0D0E91E34E9
:1011B000A34204DCD0F88C30103BC0F88C30836F35
:1011C00003EB430300EB83031B79C3EBC303C0F8BA
:1011D0009830D0E91E439C4200DD8367C86A092825
:1011E00001D00A2800D1CA6270BD0000240000208E
:1011F0006401002070B52E4900240A6B012A22D117
:1012000088680B46401E88600D6905F140050D6138
:101210005B6909D4984207DC4A268E613C260E623F
:101220006FF00706C1E909642A262A2D03DAA6EB26
:101230008316AE4200DB0E61002801DA8C6002E00A
:10124000984200DB8B60901E06282AD8C0B2C0EB03
:10125000001303EB4013174800EB8300836F5B1E02
:1012600083671DD4C56FAB421BDCD0E92D355B1BFA
:10127000C0F8B430836FC0F89030032B05D2D0F89B
:10128000A030103BC0F8A03007E0836F002B04DDD6
:10129000D0F88C301033C0F88C30836F002B00DA1C
:1012A0008467C86A092801D00A2800D1CA6270BDC3
:1012B00024000020640100200D4A106B0146801EAE
:1012C000C0EB001303EB401302F5A07000EB8300AA
:1012D000836F03EB430300EB83008368012B01D092
:1012E00013B103E0002300E001238360D162704763
:1012F000240000202DE9FC47644E002596F82C00C0
:10130000801EC7B2C7EB071000EB471106F5A070AF
:1013100000EB81044021E06F401C91FBF0F0C4F829
:10132000B8005B495B4800F0E7FE4FF009096FF039
:10133000070A1DE005EB450054F82030B4F888009A
:1013400000EB051082B234F8800F81B2514800F0F2
:10135000FBFDCDF8009021890AEB0510084482B20C
:1013600009235A214B48803C00F0BFFB6D1CEDB2B5
:10137000E06FA842DEDAB4F8B800022580B2CDE909
:101380000005B4F8B000062382B27A21414800F08B
:10139000E6FC3E20CDE90005062301227A213D48E6
:1013A00000F050FD02213B4800F09EFEA06F04219A
:1013B00000EB400004EB80000079C0EBC000C4F8F3
:1013C000AC00B4F8A40080B2CDE90001B4F8A800E4
:1013D00083B2B4F89C0082B2B4F8940081B22D4874
:1013E00000F0BDFC01212B4800F07EFE0025DFF857
:1013F000A88028E0012F24D105EB450108EB8100EE
:101400008068012803D0CDB1012D1AD116E0224801
:10141000CDF80090BC380923B0F844110AEB051050
:10142000084482B25A211B4800F0FDFA25B1012D73
:1014300002D00120FEF7E4FF012000E00020FEF7CB
:10144000DFFF6D1CEDB2E06FA842D3DAD6E90023CE
:1014500004F18C01081F00F0B7FAD6E9002304F16B
:10146000A001081F00F0B0FA04F1AC01081F01232D
:10147000032200F0A9FAD6E9002304F1B40102B076
:10148000081FBDE8F04700F09FBA000024000020CC
:10149000114100089406002020020020704700003F
:1014A00010B5FFF70DFD0120FFF79CFD2120FFF790
:1014B0006FFD0028FAD01648016841F01001016064
:1014C000016821F003010160016841F0020101603F
:1014D0000020FFF77DFD4FF48060FFF78FFD0020B7
:1014E000FFF796FD4FF460110020FFF7A1FD0120EA
:1014F000FFF798FD3920FFF74BFD0028FAD00220B6
:10150000FFF7AEFDFFF75CFD0828FBD110BD000022
:101510000020024010B501218C07204600F02EF873
:10152000012817D10C490878401CC0B20870642803
:101530000AD1002008704878401CC0B248703C288E
:1015400002D18878401C88702046BDE810400121F7
:1015500000F007B810BD000089060020C9430182D1
:101560007047C943018270470029018802D041F0C9
:10157000010101E021F001010180704702460020D5
:10158000138A92890B4202EA010202D0002A00D09B
:1015900001207047002A828901D00A4300E08A4373
:1015A00082817047018921F00701018170470000A5
:1015B00070B5028C22F480720284028C8488838B42
:1015C0000D8823F073031D4322F400730E894FF638
:1015D000FF7202EA06261E434B8802EA03233343C6
:1015E000104EB04202D0104EB04215D123F4006626
:1015F0004B8924F4405402EA0323334323F48066E6
:101600008B8802EA032333438E8902EA06162643B7
:10161000CC8902EA0414344384808583C988818795
:10162000038470BD002C0140003401400021018082
:1016300041808180C180018141818181C181704768
:101640008187704730B502881B4B1C4C98420DD0E7
:10165000A0420BD0B0F1804F08D0194DA84205D060
:10166000184DA84202D0184DA84203D122F07005AF
:101670004A882A43154DA84206D0154DA84203D0EA
:1016800022F44075CA882A4302808A8882850A88A3
:10169000028598420AD0A04208D00E4A904205D056
:1016A0000D4A904202D00D4A904201D1097A01863A
:1016B0000121818230BD0000002C01400034014036
:1016C0000004004000080040000C004000100040F2
:1016D0000014004000400140004401400048014027
:1016E0007FB51E48017809B9012101701C4800F03E
:1016F00082F91C491A4800F0FFFC184A0A20521CC3
:101700001178B1FBF0F3B1FBF0F500FB1316517843
:101710009278B1FBF0F300FB1314B2FBF0F3B1FBD2
:10172000F0F100FB1323B2FBF0F28DE872000EA182
:10173000114800F061F811A1094800F067FC402150
:10174000A1EB500081B20C4B2622054800F0FCFBB7
:1017500004B00348BDE8704000F0AFBC880600202C
:1017600094060020DD680008256425643A25642578
:10177000643A2564256400002807002030303A30A0
:10178000303A3030000000007FB501210846FFF7F5
:101790007FFB4FF080452846FFF704FF0024ADF89B
:1017A00006406320ADF80400ADF8024041F6FF00AA
:1017B000ADF800008DF8084069462846FFF742FF63
:1017C00001212846FFF7CAFE012211462846FFF7ED
:1017D000E1FE4FF4A060FFF711FB1C208DF80C0018
:1017E00001208DF80F008DF80D408DF80E4003A8F4
:1017F000FFF7D2FA7FBDFEE70FB4084B10B504A97E
:1018000002AA039800F01CF8044602A9002000F088
:10181000C1F8204610BC5DF814FB000095190008C3
:1018200002E008C8121F08C1002AFAD170477047A9
:10183000002001E001C1121F002AFBD17047000007
:101840002DE9FF4F89B09B460446002506E0252878
:101850000BD05A460B999047641C6D1C20780028C9
:10186000F5D10DB02846BDE8F08F0027B84601221B
:10187000474900E0074314F8013F203B02FA03F018
:101880000842F7D120782E2819D114F8010F47F01B
:1018900004072A280ED06FF02F022078A0F1300123
:1018A00009290CD808EB880102EB410100EB010883
:1018B000641CF2E70A98641C50F8048B0A902078A4
:1018C0000028CED0642808D0692806D075281ED0FC
:1018D0005A460B9990476D1C58E00A994FF00A0937
:1018E00001C90A91002802DA40422D2102E039059F
:1018F00004D52B218DF82010012103E0F90704D035
:101900002021F7E78A4608AE0DE00021FAE70A99A0
:101910004FF00A0901C90A91F7E74946FEF77CFC36
:10192000303106F8011D0028F7D1ADEB060000F1BB
:101930002009780701D44FF00108C84502DDA8EB63
:10194000090000E000208046002706E008A85A466B
:10195000C05D0B9990476D1C7F1C5745F6DB04E07A
:1019600030205A460B9990476D1CB8F10001A8F140
:101970000108F5DC05E016F8010B5A460B99904773
:101980006D1CB9F10001A9F10109F4DC641C65E7E3
:10199000092801000A68531C0B6010707047000092
:1019A000FEF7ECFCFFF7E4F8FFF782F8FFF748F9E1
:1019B000FFF7EAFE034800F02FFB00BFFFF7F4F843
:1019C000FCE700009406002010B5046809688C420A
:1019D00006DDA4EB0101994200DD1346E11A05E0A2
:1019E00007DA091B994200DD1346E1180160002067
:1019F00010BD012010BD01680A7C90F83810406BC2
:101A00005143C900FEF7FDBB10B5044600F0D0FA03
:101A1000204600F033FB0028FAD12046BDE81040F4
:101A2000002100F053BB2DE9F8438146089C1E4677
:101A3000101980B20090881983B21546884648462E
:101A400000F004FB00280ED00027002C0BD03346FA
:101A50002A4641464846009700F0CAF86D1C641EAD
:101A6000ADB2A4B2F1E7BDE8F8832DE9F8431C4616
:101A700080461019401C80B200900819401C83B2A7
:101A80001546101B82B20E46081B81B2089F4046C5
:101A900000F0DCFA002806D023462A4631464046AC
:101AA000009700F027FCBDE8F8832DE9F8431C46B9
:101AB00080461019401C80B200900819401C83B267
:101AC0001546101B82B20E46081B81B2089F404685
:101AD00000F0BCFA002806D023462A46314640468C
:101AE000009700F099FCBDE8F8832DE9F84F834694
:101AF0000A9E9A46901980B201EB0A04009015469E
:101B00000F46A3B2584600F0A1FA00282FD04FF09C
:101B1000000953462A4639465846CDF8009000F051
:101B200067F8022E23D3B61E360405F10105360CE4
:101B3000ADB214D04FF0010833462A463946584614
:101B4000CDF8008000F054F8641EA1B233462A4656
:101B50005846CDF8008000F04BF8A81985B25346DE
:101B60002A4639465846CDF8009000F041F8BDE8C5
:101B7000F88F2DE9F041044690F870001F46154695
:101B80000E4630B1012809D002280CD0032815D107
:101B90000FE0E16D20468847284408E0E16D2046CB
:101BA0008847301A09E0E16D20468847281A85B237
:101BB00004E0E16D20468847304486B22846A4F808
:101BC0006460A4F8660039460025204600F000FE57
:101BD000010003D0204600F02BFD85B22846BDE869
:101BE000F08138B50024009400F002F838BD000000
:101BF0003FB581B0044690F88C00089900283AD08F
:101C0000BDF81000002836D0012811D9022902D0D1
:101C1000032907D00CE0BDF80820101A401CADF8CD
:101C2000080005E0BDF80C20101A401CADF80C00AF
:101C300011F0010521D0B4F84810BDF80800814228
:101C400019D8B4F84A10814215D9B4F84E30B4F816
:101C50004C2004A90DF10C0000F02EFB00280AD046
:101C60000095206BBDF81030BDF80C208568BDF8DC
:101C700008102046A84705B030BDB4F84C10BDF898
:101C80000C008142F7D8B4F84E108142F3D9B4F871
:101C90004A30B4F8482004A902A8DDE72DE9FF4F37
:101CA00081B090F89270DDF838901D46884606465F
:101CB0009FB10020834603984146401C80B20090AB
:101CC00008EB050083B23046039A00F0BFF9002804
:101CD0002BD001244FF0000A23E00120EAE700BFE7
:101CE00099F80000204202D086F8927004E096F83D
:101CF000910048B986F892B00123CDF800A0414682
:101D00003046039AFFF774FF08F101001FFA80F8CC
:101D1000600010F0FF0402D1012409F101096D1ED9
:101D2000ADB2002DDCD186F8927005B0BDE8F08F21
:101D300008B5B0F84C30934210D8B0F84E3093420A
:101D40000CD9B0F848308B4208D8B0F84A308B42F2
:101D500004D9002300930123FFF74AFF08BD2DE9B2
:101D6000FF4F83B01F46DDE910A402EB0A06B0B2B4
:101D7000CD19009090468946ABB2039800F066F901
:101D800000285CD009EB04001FFA80FB08EB04007C
:101D900081B2281B401E85B2301B401E80B2CDE9A7
:101DA000010102200A460090234659460398FFF796
:101DB0007CFE01200090DDE9022023462946FFF742
:101DC00074FE0420009023465946019A0398FFF7B9
:101DD0006CFE0820009023462946019A0398FFF7DD
:101DE00064FE0BF101011FFA81FB0299381B491CAB
:101DF000001B80B289B20291032811D3801E86B2E3
:101E0000601C85B233464246594600950398FFF759
:101E10000AFE334600955946019A0398FFF703FEE0
:101E2000AAEB0400001B80B2032808D3801E80B2F6
:101E30000090DDE902203B464946FFF7F4FD07B07C
:101E4000BDE8F08F2DE9FF4F83B01C46DDE910653A
:101E500002EB060A1FFA8AF001EB0409009017460C
:101E600088461FFA89F3039800F0F0F8002867D03D
:101E700008EB05001FFA80FB781981B2A9EB050079
:101E8000401E80B2CDE90110AAEB0500401E1FFAEA
:101E900080F902200A4600902B4659460398FFF726
:101EA000E4FD01200090DDE902102B46019AFFF7C6
:101EB000DCFD042000902B464A4659460398FFF764
:101EC000D4FD08200090DDE902102B464A46FFF7BA
:101ED000CCFD601B711B401B491B8DB20BF1010136
:101EE0001FFA81FA019980B2491C1FFA81FB03286D
:101EF00010D3801E80B2814603463A465146761E74
:101F00000398FFF76EFEB81982B24B46514603980C
:101F1000FFF767FE032D13D3AD1EADB22B465A4615
:101F20004146641E039800F017F808EB040081B2E4
:101F3000039807B02B465A46BDE8F04F00F00CB8A6
:101F400007B0BDE8F08F000030B4024C446030BCF4
:101F500000F00CBB7D2B000838B501240094FFF77E
:101F600047FE38BD2DE9F84F8246DDE90A57D81DF6
:101F7000C0F3CC08501980B21C460090081983B2F7
:101F800016468946504600F061F800280ED00BE056
:101F900023463246494650460097FFF77FFE761C9F
:101FA0006D1E4744B6B2ADB2002DF1D1BDE8F88F39
:101FB00010B5044690F8930010B12046FFF71BFDC2
:101FC0002046BDE81040002100F080B870B50446FE
:101FD00000F0FEFB010016D0204600F03CFC04F1AE
:101FE000600094F87A10054600F0FDFA84F890003D
:101FF00014F87B1F284600F0F6FA61782846BDE801
:10200000704000F0F0BA002070BD0000014A42604C
:1020100000F0F2BC7D2B000810B50446084B094ABD
:10202000094900F0B1F8204600F065FD0021204686
:1020300000F071FD2046BDE81040FFF7DCBC000059
:102040004D2F0008B92B0008846A000870B50D46B2
:102050001E460446B0F84E10B0F84C00049B00F049
:1020600014FC002809D0B4F84A10B4F848003346EC
:102070002A46BDE8704000F008BC70BD70B504464B
:1020800000F093FC94F8390094F838100844C5B275
:102090002068407CA84204D8204600F034FD00208F
:1020A00070BD94F8930010B12046FFF7A4FC2946B8
:1020B000204600F00BF8012070BD10B5044600F07A
:1020C00074FC2046BDE8104000F01DBD10B504466C
:1020D00080F83910006B016820468847206B416802
:1020E0002046BDE81040084780F89210032902D32B
:1020F000012180F89210704710B50446806D884227
:1021000009D004F17400A16500F01AFC2046BDE876
:10211000104000F055B810BD0149C165704700007E
:10212000E32500080021A0F85010A0F854104FF645
:10213000FF71A0F85210A0F85610016B49680847CB
:1021400070B5044600250498A565E362616384F8D0
:10215000382084F8395084F86D5084F8915084F810
:102160008D50012184F8921084F893102063016847
:10217000204688472046FFF7D5FF2046FFF7CCFFD3
:1021800084F8705070BD00007CB50C460093134677
:102190000546084A084900F0C6FC01A800F0CAFB41
:1021A0000146064B00949DF804202846FFF7C8FF1F
:1021B0007CBD00001D2D0008452E0008A528000844
:1021C00010B5816D00291AD090F9813080F88E30D9
:1021D00090F9822080F88F2090F88D1000290ED081
:1021E00001290DD090F97E4090F980100C449C425A
:1021F00001DD80F88E408A4201DD80F88F1010BD2D
:1022000090F983108B4201DA80F88E1090F98410D7
:10221000F1E72BB1012B05D0022B06D0104402E0D0
:10222000084400E0801A80B27047401AFBE72BB1E7
:10223000012B05D0022B06D0401A02E0104400E02A
:10224000084480B27047801AFBE738B50446B0F8FE
:1022500056000090B4F85230B4F85420B4F850103E
:102260002046FFF7F3FE18B3012084F88C00B4F881
:102270004810B4F85000814201D2A4F84800B4F8E4
:102280004A10B4F85200814201D9A4F84A00B4F8C7
:102290004C10B4F85400814201D2A4F84C00B4F8B8
:1022A0004E10B4F85600814201D9A4F84E0038BD52
:1022B000002084F88C0038BD30B504880D88254492
:1022C000ADB2AC4205D99C4202D25D1EADB200E077
:1022D00014469C4201D2954201D8002030BD944260
:1022E00000D214469D4200D91D460480281B088058
:1022F000012030BD2DE9FF4FC3F1010083B006B2CC
:1023000058429146DDF840A040008B4601271C460C
:10231000CDE9009A00250FFA80F85B46224629464F
:1023200015E0002E08DB08F102000FFA80F8641EA9
:1023300006EB0800A4B206B26D1CBF1C3FB2CDE98B
:10234000009AADB2F01906B25B46224629460398C0
:1023500000F005F8A542E4D307B0BDE8F08F2DE901
:10236000FF4F83B00E46DDE9108703EB06000290B5
:102370001546A8EB0600019003EB05001C46F90783
:10238000A8EB050B00900DD002981FFA8BF281B2DA
:102390000398FFF7CDFC019882B2009881B20398B0
:1023A000FFF7C6FCB907A4EB060AA4EB05090DD597
:1023B0001FFA8BF21FFA8AF10398FFF7B9FC019814
:1023C0001FFA89F182B20398FFF7B2FC08EB05040B
:1023D000390708EB06050BD50298A2B281B2039823
:1023E000FFF7A6FC0098AAB281B20398FFF7A0FC01
:1023F00078070ED5A2B21FFA8AF10398FFF798FC6E
:10240000039807B0AAB21FFA89F1BDE8F04FFFF7B1
:102410008FBC07B0BDE8F08F2DE9FF4FC3F101007D
:1024200083B006B258429146DDF840A040008B468A
:1024300001271C46CDE9009A00250FFA80F85B467B
:102440002246294615E0002E08DB08F102000FFAAB
:1024500080F8641E06EB0800A4B206B26D1CBF1C17
:102460003FB2CDE9009AADB2F01906B25B46224602
:102470002946039800F005F8A542E4D307B0BDE86B
:10248000F08F2DE9FF4F83B0164610980F46A0EB52
:10249000060B03EB070001901098DDF84490A0EBC9
:1024A000070098465FEAC97103EB060A02F10105CD
:1024B00007F1010400900FD00198ABB281B21FFA6E
:1024C0008BF20398FFF748FD0098A3B282B21FFA7F
:1024D0008AF10398FFF740FD5FEA8971A8EB0707CF
:1024E000A8EB06060DD5ABB21FFA8BF2B9B2039872
:1024F000FFF732FD0098A3B282B2B1B20398FFF7A2
:102500002BFD5FEA09700DD50198ABB281B2109A2C
:102510000398FFF721FDA3B21FFA8AF1109A0398DE
:10252000FFF71AFD5FEA49700ED5ABB2B9B2109A47
:102530000398FFF711FD109A039807B0A3B2B1B248
:10254000BDE8F04FFFF708BD07B0BDE8F08F38B524
:10255000C58F049C0094521BC46A92B2A04738BD38
:1025600038B5049C0094FFF7F2FF38BD2DE9F04721
:102570001C4691468846064600F02AFD00254FF687
:10258000FF7772682178304690470346B84225D0DD
:10259000641CA3F57F40FE38F3D04A4641463046DE
:1025A000FFF7E7FA96F8701031B1012907D0022938
:1025B00008D003290FD10AE008EB000104E009EB81
:1025C000000106E0A8EB00011FFA81F803E0A9EB87
:1025D00000011FFA81F9284485B2D2E72846BDE8F8
:1025E000F0870020704710B50C4600F006F8012275
:1025F000641EA240801A40B210BD30B50568047B4D
:102600002A78E2406318DBB2082B09D36D1C056001
:102610002D78C4F10804A5401543083BEAB2DBB2AB
:1026200001248C40641E14400373204630BD00001A
:102630002DE9F843054600F1600400F00CF915F9A6
:102640006B6F2046E97BFFF7CEFF8146297C204651
:10265000FFF7C9FF0746697C20466B3DFFF7C3FFC4
:10266000804694F90A00002857DDF019404247B22D
:10267000237CA0883A464946FFF7CBFDA080237C07
:102680003A46E0884946FFF7D2FDE080A188277CE2
:1026900002460B4637B1012F0AD0022F40D0032F3C
:1026A0000FD146E094F90A7030443B449BB207E0F6
:1026B000891B491C94F90A705B1C89B29BB238448F
:1026C00080B200902846FFF7C1FC30B30020207292
:1026D00084F8090095F876102046FFF78EFF8146B2
:1026E00095F877102046FFF788FF074600224946F5
:1026F000284600F027F801223946284600F022F843
:1027000001212046FFF779FF0028EFD194F9090055
:10271000B042DFDBA07B85F892004046BDE8F8833D
:1027200094F90A705B1CC91B491C89B29BB2921BAD
:1027300004E094F90A7033449BB2D21B521C92B24B
:10274000401CBDE72DE9F74F84B00D46049C94F87A
:10275000687094F869806034A07AC01BC6B2019694
:10276000B54200D201954FFA88F279B2A088B4F848
:1027700006B0237C92468946FFF74BFD0290237CEE
:10278000524649465846FFF752FD0246069808B1A0
:10279000A17B02E0607B50B9E17B049880F8921045
:1027A000207C0090DDE901310498FFF721FAB54261
:1027B00007D3A81BC5B208F10100002700F0FF08ED
:1027C000CAE77819207284F8098007B0BDE8F08F55
:1027D00070B50D460146806D1730FF2D10D8612D64
:1027E00002D3B1F8881003E0412D02D3B1F886106E
:1027F0000844417819B30278AA42F9D1801C70BD0F
:10280000B1F88A100C1826460021304600F019F85D
:1028100004440221304600F014F8361DA842F3D3D8
:102820004FF6FF72207802EA00216078084306D054
:10283000A84201D1E01C70BDA0780444F2E700205A
:1028400070BD08444FF6FF720178407802EA01211A
:10285000084480B2704730B5054600F16004016657
:102860000020207315F8781F2046FFF7C6FEA072DF
:1028700069782046FFF7C1FEE072A87EA07310B110
:102880000020E07330BD0120FBE78A4205D283427D
:1028900001D89A4203D9012070478342F9D8002019
:1028A00070470000F0B502F007060124B44000258F
:1028B00090F892E0E7B2DDF814C02C46BEF1010FAB
:1028C00001D83D4600D03C46076822F00702BCF123
:1028D000000F3F7C07FB02F7BAB2476B3A44114442
:1028E00009D108785B1E284360401B0401F8010BE6
:1028F0001B0CF6D1F0BD0A78761C2A436240A3F186
:1029000001030A7016F007069BB206D06A06150E80
:102910006206140E002BEED1F0BD428F114490F8E8
:102920009220012A03D800BF4FF00105F2D04FF0EA
:102930000104EFE7082101700048704732070020CA
:1029400070B5054608782870487868708878A8704F
:10295000C878E870087928714879687188790C46D8
:10296000A871E079E871207A2872607A6872A07A9A
:10297000A872E07AE872207B2873607B6873A07B82
:10298000A873E07BE873207C287411212046FFF7B0
:1029900058FF688213212046FFF753FFA8821521B4
:1029A0002046FFF74EFFE88270BD2DE9F84306464A
:1029B00090F8387090F83950006800244FF6FF788E
:1029C00090F81190316830462A460B7C716B04FBFD
:1029D00003FC1FFA8CFC08EACC0C61440091002136
:1029E00000F07AF8641C6D1CE4B2EDB2BC4201D276
:1029F0004D45E7D3BDE8F8832DE9F04705460020B3
:102A000085F86A0088466FF03F06284600F0E0FA35
:102A1000002427464FF6FF794FF6FE7A6A6898F849
:102A2000001028469047014648450FD008F101089C
:102A30005145F3D02846FFF7C9FA87B216F1400F87
:102A400001D195F99060E01984B2E7E795F96A1031
:102A500049B1E01B084495F99010002E084484B257
:102A600001DDA01984B22046BDE8F087F0B590F8EA
:102A700038204FF6FF75036805EAC2018187197C8B
:102A800005EAC101418790F8394005EAC401C187D0
:102A90005E7CA718B74201D9321B92B205EAC20286
:102AA00020F8401F11444180998A8180D98AC180D1
:102AB000F0BDFFF7DBBF0021A0F84810B0F84410CC
:102AC000A0F84A10B0F84010A0F84C10B0F842102E
:102AD000A0F84E10FFF7B9BB1CB58DF805108DF8A6
:102AE0000620049C8DF804300094012284686B4613
:102AF0000F21A0471CBD30B484680023A44630BC1D
:102B00001A460A21604730B484680023A44630BCCA
:102B10001A461021604730B484680023A4460A4650
:102B200030BC0B2160472DE9F04115460E460446A6
:102B3000069F00F009F86761A660C4E903532046C8
:102B4000BDE8F04100F012B8002140F8081B064A29
:102B5000026042608260C260C17681770161FF21BC
:102B6000017780F820107047492F000830B484683E
:102B70000023A44630BC1A4609216047080001D052
:102B80000A2801D14FF6FF70704730B40469002362
:102B9000A44630BC1A461921604713B501220469C6
:102BA00001AB1721A0471CBD30B404690023A44623
:102BB00030BC1A46182160472DE9F04126481646D8
:102BC0001D46182921D004DC14291BD0172904D153
:102BD00012E019293BD020293CD00020BDE8F0812B
:102BE00015F8011B2046FDF761FF39462046FDF729
:102BF000C2FE0028F9D001E0184F0446761EF6B256
:102C0000EED227E0FDF77EFE24E04FF400350446C7
:102C100029462046FDF7CFFE0028F9D101212046A4
:102C2000FDF7B5FE0E4D20462946FDF7A4FE00280F
:102C3000F9D0002278212046FDF730FF074DAD1E68
:102C400029462046FDF797FE0028F9D002E0012131
:102C5000FDF7A7FE0120C1E70058004084000700EF
:102C60000100030030B4C4680023A44630BC1A46F7
:102C70001921604730B4C4680023A4460A4630BC1A
:102C80001621604730B4C4680023A4460A4630BC0D
:102C90001521604730B4C4681346A4460A4630BCC8
:102CA00017216047F8B50C464FEA000514F8011BE0
:102CB000182924D00EDC152919D0162917D0172968
:102CC00023D120788DF800006A4601212846FFF7BD
:102CD000E1FF0AE0192912D0FE2916D122788DF8D9
:102CE00000202921284600F057F9641CDEE72278ED
:102CF0008DF80020EE6800232846B047F5E7002352
:102D0000EE681A462846B047D0E7F8BD30B4C4682C
:102D10000023A44630BC1A46182160472DE9F04133
:102D2000DFF8B08014460646A1F11402002798F897
:102D300000001D46062A4AD2DFE802F02F03161BC8
:102D40003E4310B13046FFF720FF3046FFF72CFF1F
:102D500000213046FFF721FF21463046FFF71DFFD7
:102D6000012088F8000029E021463046FFF715FFD2
:102D700024E050B13046FFF708FF06E01821304646
:102D800000F010F9183CE4B21835182C2A46F5D892
:102D90002146304600F006F90EE096F82400FF28A0
:102DA00002D1782086F8240037692B462246304627
:102DB000BC46BDE8F041604788F800700120BDE8DE
:102DC000F0810028F8D03046FFF7DFFEF4E700205E
:102DD000F5E700008D06002070B500234569044624
:102DE0001A462821A8470023E5681A4614212046E0
:102DF000A84701224B21204600F0CEF82068292167
:102E00000279204600F0C8F800224B21204600F04D
:102E1000C3F8206829210279204600F0BDF801227C
:102E20004B21204600F0B8F820682921427920463D
:102E3000BDE8704000F0B0B80160897C80F82210D5
:102E40007047000070B50C46054600F019F888B9C7
:102E5000092C0BD00A2C01D0002070BD2846FFF7AA
:102E6000BBFF05492846FFF71DFF03E0034928463D
:102E7000FFF7E2FF012070BDB66A0008D06B0008C2
:102E80002DE9F0411E46144605460B2908D00D29B0
:102E90000ED00E291ED00F2927D00020BDE8F081CA
:102EA0001AB12849FFF7FEFE4AE02649491FF9E713
:102EB0004AB124490C31FFF7F5FE286890F8130059
:102EC00085F822003CE01F49491DFFF7EBFE28680A
:102ED000807CF5E7FFF71AFF81212846FFF7D2FE35
:102EE00021462846FFF7C6FE27E0FFF70FFF70795F
:102EF00095F8221001EBC000C7B240212846FFF729
:102F0000C1FE102040EA17112846FFF7BBFE07F06C
:102F10000F012846FFF7AEFEB07940F0B001284619
:102F2000FFF7A8FE30793268C006010E2846FFF789
:102F3000B1FE641E14F0FF04F4D12846FFF792FEA0
:102F40000120ABE7956A00080020704710B54D29B5
:102F500019D00CDC2B2916D004DC292915D02A29FC
:102F60000ED110E02D290ED04C2909D10BE0002202
:102F700050290ED051290CD052290AD0532908D0FB
:102F8000012180F82710012010BD0120FDF7F7FA7C
:102F9000F9E780F82720F6E730B444690023A44617
:102FA00030BC60472DE9F04115460E460446FFF758
:102FB000FBFD40212046FFF7F0FD27692B463246F6
:102FC00017212046B8472046BDE8F041FFF7DDBD98
:102FD000002180F8261070472DE9FC4100252A4980
:102FE0002A48FFF789F82A4C2A4E2C2713E000BF05
:102FF000C5EB051000EB800006EB8000CDE900700A
:10300000A0892C2300EB851081B200221F48FEF717
:10301000A9FF6D1CEDB260698542E9DDA06800285A
:1030200019DB6169884216DC194D00EB4000383528
:1030300055F820101548FEF7E9FFA18BA1EB5000D1
:1030400081B2A06800EB400055F82030208B82B29E
:103050000E48FEF779FF0E4920221031081F6368E1
:10306000FEF7B2FC0A49D4E900232031A1F108009F
:10307000FEF7AAFCD4E9002302B00549BDE8F041FF
:103080002831081FFEF7A0BC206400089406002029
:103090002400002098300008F0FFFFFFFF01FCFF34
:1030A000FFFFFF07FEFFFFFFFF0FFEF1FFFFCF0F48
:1030B000FF81FFFF871FFF03FFFF031FFF07FEFFC7
:1030C000011EFF0FFCFF001CFF1FF87F0018FF1FF1
:1030D000F83F0018FF1FF81F001CF31FF00F001E21
:1030E000E30FF007001FC30FF803801F8301F803ED
:1030F000C01F0300F001E01F0700E001F01F070000
:10310000C003F81F0F008007FC1F3F00000FFE1FC9
:103110007F0000DEFF1FFF3F00FCFF1FFF7F00F866
:10312000FF1FFFFF00F0FF1FFFFF01E0FF1FFFFF7A
:1031300003C0FF1FFFFF0780FF1FFFFF0F00FF1FE0
:10314000FF7F1C00FE1FFF3F3C00FC1FFF1F7E0097
:10315000F81FFF1FFF00F01FFF87FF01E01FFFC3E5
:10316000FF03C01FFFE1FF07801F7FF0FF0F001F5D
:103170003FF8FF1F001E3FF8FF3F001E1FFCFF7FB0
:10318000701E1FFEFFFF701E0FFFFFFF211EC6FFF8
:10319000FFFF030FEEFFFFFFCF0FFCFFFFFFFF0757
:1031A000F0FFFFFFFF010000000000000000000032
:1031B000000000000000000000000000000000000F
:1031C00000000000F0FFFFFFFF00FCFFFFFFFF0318
:1031D000FEFF00F0FF07FE3F00C0FF07FF0F0000EB
:1031E000FF0FFF030000FC0FFF010000F80FFF00BE
:1031F0000000F00F7F000000E00F3F006000C00FF4
:103200001F006000800F1F006000800F0F00600033
:10321000000F0F006000000E07006000000E0700A6
:103220006000000E03006000000C03006000000C52
:1032300003006000000C03006000000C030060004D
:10324000000C0300E000000C0300E007000C03008A
:10325000E03F000C030000FF000C030000F8070C27
:10326000030000C00F0C03000000070C0700000063
:10327000000E07000000000E0F000000000E0F00FF
:103280000000000F1F000000000F1F000000800F53
:103290003F000000C00F7F000000E00FFF000000B3
:1032A000F00FFF010000F80FFF030000FC0FFF0FFD
:1032B0000000FE0FFE1F0080FF07FEFF00F0FF076B
:1032C000FCFFFFFFFF03F0FFFFFFFF000000000017
:1032D00000000000000000000000000000000000EE
:1032E00000000000000000000000000000000000DE
:1032F000F0FFFFFFFF00FCFFFFFFFF03FE070000E2
:10330000FC07FE070000FC07FF070000FC0FFFFFA3
:10331000FFFFFF0FFF1F0080FF0FFF1F0080FF0F49
:10332000FF1F0080FF0FFF1F0080FF0FFF1F0080A7
:10333000FF0FFF1F0080FF0FFF1F0080FF0FFF3FE9
:1033400000C0FF0FFF3F00C0FF0FFF7F00E0FF0F37
:10335000FF7F00E0FF0FFFFF00F0FF0FFFFF01F80E
:10336000FF0FFFFF03FCFF0FFFFF07FEFF0FFFFF35
:1033700007FEFF0FFFFF07FEFF0FFFFF03FCFF0F1E
:10338000FFFF03FCFF0FFFFF01F8FF0FFFFF00F03F
:10339000FF0FFF7F00E0FF0FFF7F00E0FF0FFF3F09
:1033A00000C0FF0FFF3F00C0FF0FFF1F0080FF0F97
:1033B000FF1F0080FF0FFF1F0080FF0FFF1F008017
:1033C000FF0FFF1F0080FF0FFF1F0080FF0FFF1F79
:1033D0000080FF0FFFFFFFFFFF0FFF070000FC0F44
:1033E000FE070000FC07FE070000FC07FCFFFFFFD4
:1033F000FF03F0FFFFFFFF000000000000000000DF
:1034000000000000000000000000000000000000BC
:10341000000000000000000000000000F0FFFFFFBF
:10342000FF00FCFFFFFFFF03FEFF07FEFF07FEFF9D
:1034300000E0FF07FF1F0080FF0FFF070000FE0FE7
:10344000FF030000FC0FFF010000F80FFF00000069
:10345000F00F7F000000E00F3F000000C00F1FF8DA
:10346000FFFF810F1FF8FFFF810F0FF8FFFF010F14
:103470000F380080010F07380080010E07380080E8
:10348000010E03F8FFFF010C03F8FFFF010C0338E6
:103490000080010C03380080010C0338E79C010C0C
:1034A0000338E79C010C0338E79C010C03380080CB
:1034B000010C0338E79C010C0338E79C010C07382A
:1034C000E79C010E07380080010E0F380080010FC5
:1034D0000FF8FFFF010F1FF8FFFF810F1FF8FFFF1D
:1034E000810F3F000000C00F7F000000E00FFF00D1
:1034F0000000E00FFF010000F00FFF030000FC0FD1
:10350000FF070000FE0FFF1F0080FF0FFE7F00E09F
:10351000FF07FEFF07FEFF07FCFFFFFFFF03F0FFB3
:10352000FFFFFF000000000000000000000000009E
:10353000000000000000000000000000000000008B
:103540000000000000000000F0FFFFFFFF00FCFF94
:10355000FFFFFF03FEFFFFFFFF07FEFFFFFFFF0769
:10356000FFFFFFFFFF0FFFFFFFFFFF0FFFFFFFFF4B
:10357000FF0FFFFFFFFFFF0FFFFFFFFFFF0FFFFF2B
:103580000FFEFF0FFFFF01F0FF0FFFFFE0C0F00F86
:10359000FF7FFC07C00FFF3FFE1F060FFF1FFF3F0F
:1035A0003F0EFF9FFF3F7E0EFFC0FF7F7E0C3FC0A0
:1035B000FF7FFC0C1FFEFFFFFC0C8FFFFFFFFC0CCE
:1035C000C7FFFFFFE00CE7FFFFFFC10CE3FFFFFFBA
:1035D000CF0CF3FFFFFF1F0EF3FFFFFF1F0EF3FFE4
:1035E000FFFF1F0FF3FFFFFF3F0FF3FFFFFF1F0F53
:1035F000E3FFFFFF9F0FE7FFFFFF8F0FC7FFF9CF2D
:10360000C70F8F7FF007E00F1F1E0000F00F3F0075
:1036100007F0FF0FFFC03FFCFF0FFFFFFFFFFF0F93
:10362000FFFFFFFFFF0FFFFFFFFFFF0FFFFFFFFF8A
:10363000FF0FFFFFFFFFFF0FFEFFFFFFFF07FEFF74
:10364000FFFFFF07FCFFFFFFFF03F0FFFFFFFF008F
:10365000000000000000000000000000000000006A
:10366000000000000000000000000000000000005A
:1036700000000000F0FFFFFFFF00FCFFFFFFFF0363
:10368000FEFFFFFFFF07FEFFFFFFFF07FFFFFFFF3C
:10369000FF0FFFFFFFFFFF0FFFFFFFFFFF0FFFC346
:1036A000FF3FFC0FFF80FF1FF00F7F00FF0FE00FB9
:1036B0003F1C0080C30F3F3E00C0C70F1F7E00E0CD
:1036C000870F0FFFFFFF8F0F8FFFFFFF0F0FCFFF42
:1036D000FFFF180FC7FFFF7F100EE7E3FF7F300EDD
:1036E000E7E3FF7F300EE380FFFF780CE380FF8F7E
:1036F0007F0CE380FF077F0CE3E3FF077F0CE3E32E
:10370000FF077F0CE3FFFF8F7F0CE3FFFFFF7F0CC2
:10371000E3FFFFFF7F0CE33F00C07F0CE31F00804F
:103720007F0CE31F00007F0CE30FFF1F7F0CC3879C
:10373000FF1F3E0CC7C3FF3F3C0C87E1FF7F180E05
:103740000FF0FFFF000E1FF8FFFF010F3FFCFFFF10
:10375000830FFFFFFFFFFF0FFFFFFFFFFF0FFFFFC5
:10376000FFFFFF0FFEFFFFFFFF07FEFFFFFFFF074B
:10377000FCFFFFFFFF03F0FFFFFFFF000000000062
:103780000000000000000000000000000000000039
:103790000000000000000000000000000000000029
:1037A000E0FFFFFF7FF0F8FFFFFFFFF1FCFF9FFF4F
:1037B000FFF3FEFF0FFFFFF7FEFF0FFFFFF7FFFF17
:1037C0000FFFFFFFFFFF0FFFFFFFFFFF0FFFFFFFD9
:1037D000FFFF0FFFFFFFFF1F0E87FFFFFF070E0713
:1037E000FEFFFF030E07FCFFFF010E07F8FFFF803F
:1037F0000F1FF0FFFFC00F3FF0FF7FE00F7FE0FFE4
:103800003FF00FFFC0FF3FF80FFFC1FF3FF80FFF72
:10381000C1FF1FFC9FFF83FF1FFCFFFF83FF1FFEF5
:10382000FFFF87FF1FFEFFFF87FF1FFEFFFF87FFD2
:103830001FFEFFFF87FF1FFEFFFF87FF1FFEFFFF2B
:1038400087FF1FFCFFFF83FF1FFCFFFF83FF1FFCA1
:10385000FFFF83FF3FF8FFFFC1FF3FF8FFFFC1FFFE
:103860007FF0FFFFE0FF7FE0FF7FE0FFFFC0FF3F53
:10387000F0FFFF01FF0FF8FFFF03FC03FCFFFF0752
:103880000000FEFFFF0F0000FFFFFE3F00C0FFF73C
:10389000FEFF00F0FFF7FCFF07FEFFF3F8FFFFFF5E
:1038A000FFF1E0FFFFFF7FF00000000000000000DC
:1038B0000000000000000000000000000000000008
:1038C000000000000000000000000000FFFFFFFFFC
:1038D000FFFFFFFFFFFFFFFFFFFFFFFFFFFFFFFFF8
:1038E000FFFFFFFFFFFFFFFFFFFFFFFFFFFFFFFFE8
:1038F000FFFFFFFFFFFFFFFFFFFFFFFFFFFFFFFFD8
:10390000FFFFFFFFFFFFFFFFFFFFFFFFFFFFFFFFC7
:10391000FFFFFFFFFFFFFFFFFFFFFFFFFFFFFFFFB7
:10392000FFFFFFFFFFFFFFFFFFFFFFFFFFFFFFFFA7
:10393000FFFFFFFFFFFFFFFFFFFFFFFFFFFFFFFF97
:10394000FFFFFFFFFFFFFFFFFFFFFFFFFFFFFFFF87
:10395000FFFFFFFFFFFFFFFFFFFFFFFFFFFFFFFF77
:10396000FFFFFFFFFFFFFFFFFFFFFFFFFFFFFFFF67
:10397000FFFFFFFFFFFFFFFFFFFFFFFFFFFFFFFF57
:10398000FFFFFCFFFFFFFFFFFFFFFFFFFFFFFFFF4A
:10399000FF7FF8FFFFFFFFFFFFFFFFFFFFFFFFFFBE
:1039A000FF1FF0C7FFFFFFFFFFFFFFFFFFFFFFFF4E
:1039B000FF0FF081FFFFFFFFFFFFFFFFFFFFFFFF94
:1039C000FF0F7000FFFFFFFFFFFFFFFFFFFFFFFF85
:1039D000FF0F7880FFFFFFFFFFFFFFFFFFFFFFFFED
:1039E000FF073C00FFFFFFFFFFFFFFFFFFFFFFFFA1
:1039F000FF071600FFFFFFFFFFFFFFFFFFFFFFFFB7
:103A0000FF0309C0FFFFFFFFFFFFFFFFFFFFFFFFF7
:103A1000FF030000FEFFFFFFFFFFFFFFFFFFFFFFB1
:103A2000FF010400FEFFFFFFFFFFFFFFFFFFFFFF9F
:103A3000FF015C00FCFFFFE7FFFFFFFFFFFFFFFF51
:103A4000FFC10F00FE7FFFC7FFFFFFFFFFFFFFFF6C
:103A5000FFE00000FE0FFCC3FFFFFFFFFFFFFFFFC3
:103A6000FF600000BF0FF8C3FFFFFFFFFFFFFFFF76
:103A7000FF800080031EF8C3FFFFFFFFFFFFFFFF73
:103A800033300000001EF8C3FFFFFFFFFFFFFFFF02
:103A900000301000B00FF8C3FFFFFFFFFFFFFF3F34
:103AA00000300C00F0E3FFC7FFFFFFFFFFFFFF3F09
:103AB00040380020FE0F80FFFFFFFFFFFFFFFF3FAA
:103AC00040780080DF0118FEFFFFFFFFFFFFFF7F50
:103AD000203C00E0C780FFFCFFFFFFFFFFFFFF7FF0
:103AE000300000F847E7F1F9FFFFFFFFFFFFFFFF9E
:103AF000700000FFC307C0F3FFFFFFFFFFFFFFFFE2
:103B00005100C0F78303C0F3FFFFFFFFFFFF7FDE1D
:103B100013000080C10040C379FEFFFFFFFFFF9E3E
:103B200003000000C000E0C079FEFFFFFFFFFFFFC1
:103B30000F830000404000F8FFFFFFFFFFFFFFFF83
:103B40000F7F0042412000FEFFFFFFFFFFFFFFFF4E
:103B50008F7FE071C100F0FFFFFFFFFFFFFFFFFF5E
:103B6000873F6018FB00FCFFFFFFFFFFFFFFFFFF29
:103B70008F3F70C4FB03F8FFFFFFFFFFFFFFFFFF56
:103B8000871F10C0FF01F0FFFFFFFFFFFFFFFFFFD8
:103B9000C53F30F0FF00F0FFFFFFFFFFFFFFFFFF1B
:103BA000C77F78FC7F00F8FFFFFFFFFFFFFFFFFFED
:103BB000C7FFFCFF7F0020FEFFFFFFFFFFFFFFFFAF
:103BC000E3FFFFFFFF0300FCFFFFFFFFFFFFFFFF1F
:103BD000F3FFFFFFFF0100F8FFFFFFFFFFFFFFFF05
:103BE000F7FFFFFF7F0000FEFFFFFFFFFFFFFFFF6C
:103BF000F7FFFFFF270000FEFFFFFFFFFFFFFFFFB4
:103C0000FFFFFFFF0100F0FFFFFFFFFFFFFFFFFFD0
:103C1000FFFFFFFF01C0FFFFFFFFFFFFFFFFFFFFF1
:103C2000FFFFFFFF00F8FFFFFFFFFFFFFFFFFFFFAA
:103C3000FFFFFFFF03FFFFFFFFFFFFFFFFFFFFFF90
:103C4000FFFFFFFFF3FFFFFFFFFFFFFFFFFFFFFF90
:103C5000FFFFFFFFFFFFFFFFFFFFFFFFFFFFFFFF74
:103C6000FFFFFFFFFFFFFFFFFFFFFFFFFFFFFFFF64
:103C7000FFFFFFFFFFFFFFFFFFFFFFFFFFFFFFFF54
:103C8000FFFFFFFFFFFFFFFFFFFFFFFFFFFFFFFF44
:103C9000FFFFFFFFFFFFFFFFFFFFFFFFFFFFFFFF34
:103CA000FFFFFFFFFFFFFFFFFFFFFFFFFFFFFFFF24
:103CB000FFFFFFFFFFFFFFFFFFFFFFFFFFFFFFFF14
:103CC000FFFFFFFFFFFFFFFFFFFFFFFF40020302B9
:103CD0000404010205080B00010C000C02014E0057
:103CE00000034D2007B8C7E7FF082107B8C7E7FF63
:103CF000082207B8C7E7FF082307B8C7E7FF08246B
:103D000007B8C7E7FF082507B8C7E7FF082607B8C1
:103D1000C7E7FF082707B8C7E7FF08280AB8C75151
:103D2000F37E477418290AB8C7D391BC5F75102A6F
:103D30000CB8C7699CE331A9F30B002B0CB8C7077B
:103D4000F3E23084799D032C08B8C78B73FE072DEE
:103D500009B8C7E7380C393F2E09B8C7E7DF641D3B
:103D6000052F0CB8C7AEC7F5B81EE714003014B85D
:103D7000C7388551188551188551188551180D3B44
:103D8000063108B8C7D4FB770C320DB8C7B8771A1C
:103D9000A6BC3EEC1800330CB8C7B8370E79A76143
:103DA000C7003410B8C708A3300AA3300AA361EFD4
:103DB0008E01350DB8C738E5F561EF34EC180036E3
:103DC00011B8C738E5F5610AA3300AA3301A760C9A
:103DD0003709B8C7B8F7EF18003814B8C738855195
:103DE0001885D1308551188551180D3B06390FB80B
:103DF000C73885511885D1B0771A760C3A0BB8C7F9
:103E00006795754EB28E023B07B8C7E7FF083C07BF
:103E1000B8C7E7FF083D07B8C7E7FF083E07B8C7C0
:103E2000E7FF083F07B8C7E7FF084007B8C7E7FF45
:103E3000084116B8C73824699226699226C390A40F
:103E4000499AA4499A43004216B8C7382469922671
:103E500069324C699226699226C3904300430CB89C
:103E6000C7382479BF0F430E014414B8C738A54999
:103E70009AA4499AA4499AA4499A0C3B06450FB8BA
:103E8000C73824797DD0F2F661C82100460DB8C745
:103E90003824797DD0F2EE14004713B8C73824795E
:103EA000D390A4499AA4499A0C430E014816B8C766
:103EB0004893344993341986244DD2244DD224CDCD
:103EC00021004908B8C7CBFB77144A0FB8C71BF2CB
:103ED0005ED2244DD268D031004B13B8C74893301E
:103EE000CA4AE19AA4519815A33487004C0BB8C76D
:103EF000C8FBFB30E410004D14B8C748134DE9A9C6
:103F00009226699226699226690E014E16B8C7104C
:103F10001331A925B524AA44952CA9254525D421DA
:103F2000004F15B8C719A4344993344993344993C1
:103F30003449A341C7005010B8C738246992266994
:103F4000320C49DE9D025115B8C719B2300AA330B0
:103F50000AA3300AA3300AB36187005215B8C738E4
:103F60002469922669320C49350AB36294E610003E
:103F7000530FB8C7382479FB30E42DC39043005465
:103F80000AB8C7388479BF93015516B8C748933427
:103F9000499334499334499334499361C821005675
:103FA00012B8C748933449A3AC4D11933489F31C1C
:103FB000055714B8C74893344993344993A8125508
:103FC000FA8BA643005811B8C748A3AC3189F3381F
:103FD00009B3A63487005910B8C7489334499334BD
:103FE000198630EF8E025A0DB8C738E4B1EA733E35
:103FF0000C39045B0BB8C718C2BCDF871C055C1109
:10400000B8C7C8913C47F21CC97324CF911C035D0B
:104010000BB8C71AF2FE38E418005E0BB8C78B93D2
:1040200030CBF937005F09B8C7E73F0D3B0600000A
:104030000004FFFF00001000040605050405061239
:104040001A00001A001A000000000000BE2006003E
:10405000205C012B0F11A69D6FE0C377A21BF8F027
:104060001D002C0C07AD5CA538490CD100002D07B4
:1040700049645F41022E07A5B45C2103300C11A7EF
:104080009C81C4C5FF7F6C03310B06BF9C8131C38B
:10409000FFFF07320E11A79C41E4C39F9F5EF8FD0E
:1040A0000C330E11A79C41E4C3BF71F2E1E7363433
:1040B0000D11A79C41C0C57F5CF2E17F350E11A7B1
:1040C0009C81F4C2DF8B7CF8B90D360E11A79C8160
:1040D000F4C2DF93B8F8B10D370B10AB9C01D4C319
:1040E000FFFF07380E11A79C81C4C51F9FB8F8B108
:1040F0000D390E11A79C81C4C51F977CF8B90D3AE4
:104100000A05B65C21F380CF0000000004FFFF0029
:1041100000710003020304030504060D00FE09FEFE
:104120000AFF015F02C408542005006E07210749F9
:1041300043C7210922079B5A476209230E3D464F78
:10414000294906A53228A52401240F4D42573628B7
:1041500051926D49940C5A04250D4D424FA474CCD4
:104160008A498B9400260E45424F9644495689A2AF
:104170002952022706195BC700280BDB3E57122580
:1041800051B7280B290CDB3E47166551972889004B
:104190002A0A2D5257A5B23445002B0A2D4A57182A
:1041A0000D5218012C079B3E8F52022D060D52C74F
:1041B000202E089B3E4FB224002F0B4D42672DCC82
:1041C0008A591802300B4D425796D4BC25B5083198
:1041D0000B4D42572625614F8300320B4D42CF9243
:1041E0006961D67110330C4D42C72066B535D49243
:1041F00005340F4D425F984949949492410B130046
:10420000350C4D42C7B1620A432D5900360D4D425F
:10421000CF9289E19064B66401370C4D42C72066A5
:10422000611666610D380D4D42CF92D99225B325A6
:104230000B00390D4D42CF92D992210CB564013A51
:104240000BC33E4FB2E448B224003B0AC33E4FB218
:10425000E48852023C084D4267D6B5033D09254A21
:10426000C7A06383003E094D4247DAAD23003F0CEF
:104270004D42CF92696156CCA108400D4D42CF927C
:10428000999644492CE910410C4D425796D46CC381
:1042900090D90242104D42C71055A2244AA64A9412
:1042A000448302430B4D42CF9289BD250B0044123B
:1042B0004D42C71055A2244AA2244AA2241A14002F
:1042C000450B4D42C7B13824617110460B4D42C7B2
:1042D000B13824612300470C4D42CF92894D9B9603
:1042E0002C00480B4D4247E6360C995B004908CB41
:1042F00042C712F5654A0B4D42D716F61245120019
:104300004B0D4D4247664A4A5A1255322D4C094DC3
:104310004247D88F83004D0D4D4247A62D4BA22416
:104320009A5B004E0D4D4247364D4AA224D24D0BAA
:104330004F0A4D42CF92F92D5900500C4D42C79073
:1043400064B641091B01510A553ECF92F9A5B20648
:10435000520D4D42C79064B6412955322D530C4D34
:1043600042CF9289E91A6AC90254094D42C7208591
:10437000FD0455094D4247E66FC902560D4D4247AF
:10438000E696949228C9C208570D4D4247E625513A
:10439000122551BA00580E4D4247A625A524AB441C
:1043A000494D0B590C4D4247A625A5240B3B015AFC
:1043B0000C4D42C720666156CCC2415B09DB3EC74B
:1043C00010F5A7015C0B4D4247988669310D035DDE
:1043D00009DB3EC7D49F86005E081D5A5796D4025B
:1043E0005F060D3EC720600612634714610B35421D
:1043F000CF9A0C9AA42801620C4D4247581C92CCCB
:104400006D5000630A3542CF9289B56401640B4D4B
:104410004267CBA0B9254300650C3542CF920D43CE
:1044200098250B00660C4D42975409B3210ADB0016
:10443000670C453ACF92D99221D49205680A4D4231
:1044400047D862D2DC026908C3424F2875196A0B4B
:10445000543A5FACB54952A2006B0D4D4247D89417
:1044600094B424AA64016C08CB4287D42F036D0D49
:10447000354287D2A2244AA2245A006E0935424707
:1044800062D2DC026F0A3542CF92B9250B00700C64
:10449000453AC79064B641098B00710A453ACFA0EE
:1044A000D992216C720935424762121B01730C3597
:1044B00042CF92256A92250B00740C45424F980D0D
:1044C00051D81429007509354247E6495102760B47
:1044D000354247664B4A491601770B3542476649D4
:1044E0009444E902780B35424796D4C22CA9057949
:1044F0000C453A47E6A428A1962C007A093542C714
:10450000A0751C047B0B5D3E9F1436A961AB007C3B
:10451000064943C7037D0B5D3E871AB64A61930681
:104520007E091D5A4FA4245202A005006E07A1085F
:10453000494347320C01A20E454657B65494288988
:1045400092CA1601A30D4D42975409B32D2C290A86
:1045500000A40C354647964C4994444B16A50F4D84
:104560004247A625A52419A46890C208A608494375
:10457000C7900C01A70ED4428F12894A2425A29419
:104580002800A807936247A204A90F4D46CF92299D
:10459000C9215A96444B1600AA0C3D4ACF9A0C5A90
:1045A00032A48300AB0B354657D25392255912AC37
:1045B000071D4AC72016AD068B52C700AE0E4D46EA
:1045C000CF920DC92119945BB200AF060D62C720CE
:1045D000B009A4568F12498902B10B3D4657180DF8
:1045E00052980F02B2082B564F53920CB3072B561A
:1045F0004FB705B40612638F02B50A453A47E6691C
:1046000050C410B6124D42CF302443322443922876
:104610005112255112B7060A538700B806123B8F74
:1046200002B9082B564F225506BA0A3D4ACF92D9F5
:10463000927910BB0C35464792255912253D01BC95
:104640000C55424F26D6E64C4AA231BD0C55424F7E
:1046500026D6D62C09B36CBE0F55424F966469948A
:1046600064512625D118BF0C4D42570E855931D3C0
:104670009205C00E55424F9A435952D38621D30218
:10468000C10D55425F1DCA929A360C9916C20D553E
:10469000429754CF929A360C9916C30E554257D270
:1046A0008E64494D1B864C0BC40F55424F29C9914E
:1046B0002CA969C3906901C50F554257966461964C
:1046C000D4B461C8B400C6114D424FB244499444B9
:1046D00089322551122503C70B5D3ACF9289BD253A
:1046E0005B0DC80D55424F9A0F633824613808C9D5
:1046F0000C55425F7D18C32109C341CA0D5542972D
:10470000541DC67048C27010CB0E55424F29898780
:10471000311C92301C04CC0AD34247162E5197010B
:10472000CD0AD34257122E519701CE0BD4428F128D
:104730008553D66901CF0AD34247A2644BD465D0D2
:10474000114D42C71055A2241A92521225D1A00031
:10475000D10D554257D29C699392489B16D20C5565
:10476000424F9A234BE62D5900D30B55425F1D59FA
:10477000326FC902D40B554297545E326FC902D5CD
:104780000B554257D2BE64DE9205D60C55424F29D6
:10479000C997CC5BB200D70A2D464796D42AB500FC
:1047A000D8105D3E67B24497444994649A922504B8
:1047B000D90B55424F9A67BE250B00DA0A55425F66
:1047C0003DF32D5900DB0B55429754CD7C4B160021
:1047D000DC0B55424F298933DF9205DD0B55425FD3
:1047E0003DD3925AD804DE0D4D42473824996D507E
:1047F000C22200DF0E4D428F548992521255328BE5
:1048000002E00D4D424F9A236B326892A204E10CF4
:104810004D425F1D599341931425E20C4D4297542C
:104820005E9341931425E30D4D4257D2BE26832655
:10483000294A00E40D4D424F29C9D764D0244509C7
:10484000E50D55429754D2D764D0244509E60B357F
:1048500042CF96244B29E902E70B453ACF9289B51E
:1048600064AB01E80E4D424F9A234B360C61962CF7
:1048700000E90D4D425F1D59B26108B36401EA0DB4
:104880004D4297545EB26108B36401EB0E4D424F46
:1048900029C9976C18C22C5900EC09CB4247164A1B
:1048A0005D06ED09CB4257124A5D06EE0ACC428FF7
:1048B00012855AA705EF0ACB4247A264529701F02E
:1048C0000D55424F2D53A325734B1600F10B4D424E
:1048D00057D29C9834B700F20C4D424F9A234BE6C6
:1048E000962C00F30B4D425F1D5932B76401F40B57
:1048F0004D4297545E32B76401F50B4D4257D2BE1C
:10490000646EC902F60C4D424F29C997CC2D59004F
:10491000F70A3D4657980F7A1801F80E453E67B2E0
:10492000444BA22453B28400F90A4D424F9A679E29
:104930001425FA0A4D425F3DF3A42801FB0B4D42BA
:104940009754CD3C294A00FC0B4D424F2989334FE7
:104950008A12FD0D5D3A5F3D735294504B1600FE76
:104960000D553A47583169DAA4286108FF0E5D3ABF
:104970004F298933274509B56401000000100164FF
:10498000056001C90555022F0589FFFF01000E557D
:1049900042C7A067494D1B86CC1601010D4542C791
:1049A00020AFC9A0498A1201021055424796EC482F
:1049B00096D4B461C8B40001030E4D424796EC6B27
:1049C000326892A2040104145E3A57984459922521
:1049D000593228599225591A0701050E463ACF1C1B
:1049E0000D49964496340E01060D55425F1D59320D
:1049F000B12D590001070D4D425F1D5932B1962C62
:104A00000001080D554297545E32B12D590001093D
:104A10000D4D4297545E32B1962C00010A0E55425C
:104A20005798234B26B6250B00010B0D4D42579886
:104A3000234B26D69205010C0E55424F14E94B2606
:104A4000B6250B00010D0D4D424F14E94B26D692B1
:104A500005010E1255424F14C94354899228899278
:104A6000685000010F0F5D424F14E958980C9A5B93
:104A700032040110124D42C71055A2241A9252124C
:104A800025D1A0000111124E4267384643922559A4
:104A900092255934240001120E5542C7A00E6338E6
:104AA0002461711001130E4542C7202FD93084595B
:104AB000B20001140F55424796CCC3180E49180E88
:104AC0000201150F4D424796EC4B360C61962C00B7
:104AD00001160E554257980F6338246138080117A4
:104AE0000F4D425798234B360C61962C0001180E3F
:104AF0005D3AC7B13824617190D20401190E453A6C
:104B0000CF920D4398255B9A00011A0F55424F141E
:104B1000C9C3180E49180E02011B0F4D424F14E96C
:104B20004B360C61962C00011C0E554297545E3298
:104B3000B1B4250B00011D0F5D3A97545E325B3214
:104B4000845AB200011E0E55424796EC4B2696B68B
:104B50006401011F105D3A4796EC4B664B86504B43
:104B6000160001200E55425798234B2696B6640135
:104B70000121105D3A5798234B664B86504B160027
:104B800001220E5D3ACF92894D9B966C3500012330
:104B900010653A5F4D4796CC960CA1962C000124E7
:104BA0000D55429754CD6CC390D90201250C554246
:104BB00097540D2B26CD1601260E4D4247A60D43C8
:104BC000360C995B0001270D4D424738246162D2B3
:104BD000DC0201280CD4424FA2A453D6690101295A
:104BE0000B4C424FA2C45AA701012A0C5542C720C0
:104BF0006F616F0B00012B0B4542C7208BDD160048
:104C0000012C0C55424796EC5BD86D01012D0B4DE4
:104C1000424796EC62B705012E0BDB3AC712F565E9
:104C2000C902012F0BD33A4F287559B20001300B3E
:104C3000D3424F142E519701013108B34287D465F6
:104C40000132144E4287326449966449966449960B
:104C5000B4281100013313553A4F942A4A94444919
:104C6000944443528A140001340D55429754DFC2D4
:104C70009628920001350E5D3A975417BB444914AB
:104C800049000136115D3A47664A4A5A1255322D9B
:104C9000C942000137105D3A47D89494B424AA64FD
:104CA00049160201380C3542472625A5A99205016F
:104CB000390C55424F9643618F8300013A0ADB421B
:104CC00057124A7D19013B0C5D3A47D88F83946592
:104CD00000013C0ADB3A87D42F4B09013D0C5542B9
:104CE0004714E948D8E310013E0B5C424794C85A88
:104CF0009F06013F0D4D4247D8944449581C04017A
:104D0000400BCC4287D6D2ADB40001410C4D424F8E
:104D1000186A99D8380401420BCB4287142989D4E8
:104D20003201430D55425F3D9B2625916E010144A2
:104D30000B4D425F3D31696E010145105D3A4736CA
:104D40004D4AA224D24D4BB21001460C453A47625F
:104D5000D2DC922C0401470E55424F14C9D9342994
:104D600089740B01480C4D424F14C98949730B01DA
:104D7000490D55428798E55062D2DC02014A115D27
:104D80003A47364D4AA224D24D8B922C01014B0D4D
:104D9000453A4762D2DCA2244B00014C0C5542C775
:104DA000202F996FC902014D0C4542C7202F995BF6
:104DB000B200014E0D55424796EC4BE62D590001CD
:104DC0004F0D4D424796EC4BE6962C0001500D5589
:104DD000424F24E54BE62D590001510D4D424F2421
:104DE000E54BE6962C000152124D42CFA044499467
:104DF0004489524AA2241B0201530D35424F1765C4
:104E000048A2A40B0001540F55425F7D48326D50FB
:104E1000A224D30201550B4D425F3D31898D000123
:104E200056115D3AC79064B6412955322DC94200EA
:104E300001570B453A4762125BB3100158105542B7
:104E40004714E9439269831225991601590C4D4282
:104E50004714E989496C04015A0D55425F1D5932C6
:104E600075D59205015B0E4D425F1D59B2444DB29E
:104E70006401015C0D554297545E3275D59205016F
:104E80005D0E4D4297545EB2444DB26401015E0E18
:104E90005D3ACF9289E91A6AC95603015F0D453A16
:104EA000CF92256A92255B0D01600E55424F14E9A1
:104EB0004BA6AE5AB2000161104D424714E9C892A8
:104EC000256A92250B0001620C5D3AC72085FD9A88
:104ED000450001630E553A4F980D51D814693500BD
:104EE00001640C55424F14C98314F60401650F5533
:104EF000424714E94836446153A40001660C4D4210
:104F0000C72085D916760201670E45424F980D518C
:104F1000B68551A40001680C554257D29CF9962CD5
:104F20000001690C4D4257D29C79529400016A0CE1
:104F30005542C7A0667E4B1600016B0B4542C7A0C9
:104F4000669E1425016C0C55424796CC996FC90298
:104F5000016D0C4D424796CC99274509016E0D5DB8
:104F60004257966479E65BB200016F0D5542579641
:104F70006479E649510201700C55424F24C5996F7E
:104F8000C90201710C4D424F24C599274509017290
:104F90000C5D3A47E66FC996260001730C453A4707
:104FA000E64951A2340101740D55429754CD5C126B
:104FB00025B90501750E4D429754CD2C8992285D77
:104FC0000001760E55429754CD925292854D0001C4
:104FD000770E5D3A9754CD9C1425D4920501780F35
:104FE00055424F2989B3A4946461130001790C558B
:104FF000425F7D10B38E8300017A0B4D425F7DD0FE
:105000003A0E02017B0C554257980F62D67110017F
:105010007C0B4D4257980F5AC741017D0D55424FA9
:1050200014C98398751C04017E0C4D424F14C9832A
:10503000D67110017F0C4D4297540933B11B00010A
:1050400080104D424FB68553254AA2244A160001CE
:1050500081114D42CFD2944449A425511225C90251
:1050600001820E4D42C74D0C8724B30D0A00018307
:105070000DCC42C72069D91299860401840E4D4295
:105080004F2616A74A9444C90201850C4C424FA4EE
:10509000D5A4A4170501860C4D42CF92851DB56499
:1050A0000101870E56426F32245992F6164D0001C7
:1050B000880D3E426F32245992D6A2090189124DC1
:1050C00042C71055A2241A92521225D1A000018A7B
:1050D000124D42CFD2944449944449944449B20079
:1050E000018B0D4D42C72DAC0C9A2D1902018C0D70
:1050F000CC42C720659521322503018D0D453ACF5D
:1051000092D992554B1600018E0C4D42C720B60C19
:10511000617118018F0E4D42CF9285E13064B66403
:105120000101900E4D42CF9289A914665AB2000136
:10513000910E5D3AD71416A7B029C9320001920E1C
:105140005D3A5F250AB32D6C4AB20C0193115642A9
:105150006F322459923629599245130001940F4514
:105160003A47A625B5304BA2248B000195104D423D
:10517000475894944449944449A40401960ACC4263
:1051800087D62F510201970BCB42C7125596A832F2
:105190000198124E424796448954C9C4248B6A49E7
:1051A00096000199104D424F9644619494B424AAFC
:1051B0006401019A0BCB4287D4B2449501019B0F45
:1051C0004D4247146995304BA2A4A605019C134D8E
:1051D000424792288992288992288992282D020193
:1051E0009D155D3A4F9444899228C990244AA2445F
:1051F00049346600019E0B453A4762D2DCC2020187
:105200009F0E4D42CF92D98621B3250B0001A00EEF
:105210004E428F24259212F56F1A0001A10D3642DD
:105220008F24259212B5690001A2114D424F172516
:10523000511225511225519A0201A30D453A4F17DB
:10524000255112A5292C01A40E4D42CF52514A4995
:10525000A4854D0001A5105D3A4F9644E19064B6D7
:1052600041098B0001A60F5D3A47180E49661B9451
:1052700052350C01A70E4D42CF92859525AC250BDA
:105280000001A80C3542CF92455256590001A90A97
:105290004D42C7B5AD711001AA0C553E4F966462E0
:1052A0005FB20401AB0E553A4F980D51D81489598D
:1052B0000401AC0C4D42CFA04449D8270001AD0EEB
:1052C0004D42579644D910854D910201AE0C5D3A7E
:1052D000C72085FD254B0001AF0E4E4247944889FB
:1052E000A444FD9B0601B00F364247944889A4446C
:1052F000152D890001B10D4D4287A294929AB76491
:105300000101B20C4D424794647E4B160001B30D6F
:105310004D428F25514A4916760101B40E4E3A6727
:105320001225526F6B54D30001B50F4D42C7206652
:1053300061322861160E0201B60D3542C7A02583E1
:105340009285830001B70D4D42C72066B535D492D2
:105350000501B80C4D42C7B5B684B5640101B90D5D
:10536000453AC7A0A4D912D6920501BA0D453AC74D
:10537000A0D5C648CA920501BB0F4D42CF926961C4
:10538000960C4A160E0201BC0E4D42C74D4C4C61A4
:10539000A8250B0001BD0FCC42C7206949A2649922
:1053A00094280001BE0BBB424F942C99520101BFBF
:1053B0000E453A4F4929255152D2320D01C00859A4
:1053C0003BC7830001C109DB3A47E27F0901C20DF7
:1053D0003D4257180D523448610401C3084943C780
:1053E000210901C41055425792C5CA9228892551F6
:1053F000120701C5104D425792255A122543922893
:10540000890701C61055425792E548980D4AA224D3
:10541000A62101C70B4D4247E62FC9A00001C80FC6
:105420005D3A479889D1E6364C49960001C9155D29
:105430003A87182561A2444994444934245192255D
:105440000001CA134D42473224C9900CC9900CC9BF
:105450009028433201CB165D3A471225C9100D83BF
:10546000322443A2244A29C9120001CC12553A67BA
:105470002A29899228899228A5244B0001CD10550C
:10548000424F14E94896D4B461C8B40001CE0E4D21
:10549000424F14E96B326892A20401CF0CD4424708
:1054A00094A853D6690101D00B4C424794C85AA71F
:1054B0000101D10D55424F14E94BE62D590001D29F
:1054C0000D4D424F14E94BE6962C0001D30C55428A
:1054D0004F14C9996FC90201D40C4D424F14C99998
:1054E00027450901D50D5542C7202771E62D5900E2
:1054F00001D60E5542C720275112674E8A1201D796
:105500000C5D425F1D2967DE920501D80E5D425F8A
:105510001D292571E6A4280101D90E5D424F14E929
:10552000499C794B160001DA0F5D424F14E949940A
:10553000C49993A20401DB0D5D424F9A23E5CC5B35
:10554000B20001DC0E5D424F9A23A524CE9C1425A7
:1055500001DD0D3542CF9285C390250B0001DE1091
:105560005D42C72027399225356D18322D01DF1095
:105570005D42C720275192AFC9A0498A1201E010AD
:105580005D42C7A0E75096D4B461C8B40001E110F1
:105590005D42C7A08739B2268326294A0001E2105E
:1055A0004D42C720274B944443524AA26401E30E64
:1055B0004542C7206F49B294922E0001E40E4D423D
:1055C0008F54095B946488220901E50F453A8F5492
:1055D0008992281A9341910001E60F55424F14E930
:1055E0004B26469B962C0001E710653A4F14E9E8DC
:1055F00092D99221D4920501E81055424F14C999CD
:105600009494B424AA640101E90F55424F14C9616E
:1056100029296949540101EA0C5D3ACF92F92DD943
:10562000D20401EB0C453ACF92B9255B9A0001EC0C
:105630000E5D3AC7202F99B7644B130001ED0E554C
:105640003AC7202F995BB2A5090001EE0E55424FD3
:1056500014C983565BB5640101EF0F5D3A4F14C95D
:1056600083565B432D590001F00F5D3A4F14E988D2
:10567000D8254AA2480201F1114D4287B2244AA21C
:10568000244A624994C40101F2114D42879644496B
:10569000940C49A22496C40101F30F4D4257581BA4
:1056A0009444492C89340401F40E55425F1D59324B
:1056B00031DAB4640101F50F5D3A5F1D59325B3296
:1056C000845AB20001F6144D42471225511225C9E1
:1056D000902889922889940001F70E553E4762D29E
:1056E0004C49490B8B0001F80D55424F9A67D3A4E2
:1056F00024D22D01F90B4D424F9A2726CD2D01FAC8
:10570000105D425F1DCA922CCC92DA30640101FB1D
:105710000F5D425F512A496B326892A20401FC116D
:1057200055425F1D4996288986A49444C90001FD0D
:105730000E4D425F1DD9926429255D0001FE0F5D6B
:105740003E5F3959A24B324DC9120201FF10553E3E
:105750005F3959A22551922959420002000E554243
:1057600047D49E25356D18322D02010E4D4247D487
:10577000BC268326294A0002020F5542CF92E559E2
:1057800052D38621D30202030E4D42CF92C56B3213
:105790006892A20402040E554247D43A8CE19084E8
:1057A000E12002050E4D4247D4BC64C31066C90215
:1057B00002060F5542CF92A5C3180E49180E0202D9
:1057C000070F4D42CF92C54B360C61962C00020854
:1057D0000C554247D4BC85DD160002090B4D4247EB
:1057E000D42C765B00020A0C5542CF92C55BD86D73
:1057F00001020B0B4D42CF92C562B705020C0C554E
:105800004247D4BC64DE9205020D0C4D4247D4BC25
:10581000646EC902020E0D5542CF92C54BE62D595A
:1058200000020F0D4D42CF92C54BE6962C000210A0
:1058300010554247D43A24993628519269010211F1
:105840000C4D4247D49A98C446000212105542CFDC
:1058500092A5439269831225991602130C4D42CFEB
:1058600092A589496C0402140C554247D49AF996C2
:105870002C0002150C4D4247D49A7952940002161E
:105880000C5542CF92A5996FC90202170C4D42CF19
:1058900092A59927450902180E5D3ACF9289E91A17
:1058A0006AC9560302190D453ACF92256A92255BC3
:1058B0000D021A0C5D3AC72085FD9A4500021B0EA9
:1058C000553A4F980D51D814895904021C0F4D4276
:1058D000C79064619649C52C9900021D0E453AC7D0
:1058E000906435A998251300021E0E55424F14C925
:1058F000996D18325B00021F0D55424F14C961C5E6
:10590000A4D90202200B5D3A4762D2FC161602228D
:105910000E4D425F14695AB264B6640102230D3D14
:10592000424F9B962C99962C000224105D3AC7207A
:10593000666156CCC241CC120002250C453AC7A084
:10594000751CC42C0102260E4D42570E65494D1B95
:10595000864C0B02270D4542578EACC9A0498A12CE
:1059600002280E5D3AC7B138246171D0220902299C
:105970000E453ACF920D439825632401022A0D5D0E
:1059800042CF9EE44BE62D5900022B0D5542CF9E8F
:10599000E44BE6962C00022C0E5D42CF90274D4B37
:1059A000E62D5900022D0E5D42CF9027ED4BE69675
:1059B0002C00022E0C4D42578E2C99B76401022FF9
:1059C0000C4542578E2C995BB20002300E5D42CFDF
:1059D0008EE4C892794B160002310E5542CF8EE408
:1059E000C892B9250B0002320E5542CF9C69492955
:1059F000C9C2260002330E553ACF9C39294AA82540
:105A00000B0002500C35424762D206255D00025160
:105A10000B35428F6933294A0002520C35424762E6
:105A2000D2B449510002530E4D428F54098724735A
:105A30001B140002540C3542CF9285A1962C000213
:105A4000550D3D3ECF9289892959420002560E5E7E
:105A50003A5F5A9BFADB9A84090002570D56426757
:105A6000254BB3A9BF4D0002580C3542CF920DA370
:105A7000962C0002590D3542CF9285C390250B001C
:105A8000025A0C36428F16694A534D03025B0D359C
:105A900042CF92255298250B00025C0C3542CF92E2
:105AA00045AA962C00025D0D36428F16695116D517
:105AB0003400025E0D3542CF92294AA6250B000222
:105AC0005F0E4D3A5FD83464611245120002600ED9
:105AD0005E3A6725CBA6BEAD514D0302610D453A36
